:020000040800F2
:10000000A00B0020C9000008512400085324000858
:1000100000000000000000000000000000000000E0
:100020000000000000000000000000006324000841
:10003000000000000000000065240008D90000084E
:10004000DB00000800000000DB000008DB00000807
:10005000DB000008DB000008DB000008DB00000814
:1000600000000000DB000008DB000008DB000008E7
:10007000DB000008DB000008DB00000800000000D7
:100080006129000800000000000000003729000876
:10009000DB000008DB000008DB000008DB000008D4
:1000A000DB000008DB000008DB000008DB000008C4
:1000B000DB0000080348854602F0FAFE00480047CE
:1000C0006F1F0008A00B0020044880470448004729
:1000D000FEE7FEE7FEE7FEE7FEE7FEE7EF240008A7
:1000E000B500000810B50446B548844207D1012187
:1000F000401501F076F80021601501F072F810BD8E
:1001000010B50022C268AF4B1A400C7964030B682B
:1001100023438C682343CC6823430C6923434C69F5
:1001200023431A43C26010BD002101600171816048
:10013000C160016141617047002904D082680123D8
:100140001A43826003E0826802231A438260704788
:10015000002A03D003690B43036102E003698B4368
:1001600003617047002905D0C2680123DB031A43ED
:10017000C26004E0C2680123DB039A43C260704797
:10018000002905D0C26801239B031A43C26004E022
:10019000C26801239B039A43C2607047002905D0BF
:1001A000C2680123DB051A43C26004E0C268012370
:1001B000DB059A43C26070470B0413430362704728
:1001C00010B50A460021C1681F24A4060B46A343AC
:1001D00019460B4613431946C16010BD002905D0CE
:1001E000C26801239B051A43C26004E0C268012370
:1001F0009B059A43C2607047002807D072498968FE
:100200000122D2051143704A916006E06E49896867
:100210000122D20591436C4A91607047002807D0B3
:1002200069498968012292051143674A916006E095
:1002300065498968012292059143634A916070473C
:10024000002807D0604989680122120611435E4ADE
:10025000916006E05C4989680122120691435A4A7E
:100260009160704710B50B460021846A1C4384627C
:1002700000BF0C4614432146416110BD002905D042
:10028000C26801235B031A43C26004E0C268012311
:100290005B039A43C2607047002905D0C2680123FE
:1002A0001B041A43C26004E0C26801231B049A4382
:1002B000C2607047002905D0C26801231B031A439E
:1002C000C26004E0C26801231B039A43C260704706
:1002D00030B501460020002200238C680125ED077F
:1002E0002C438C6000BF8C68E30FDB07521C0F248B
:1002F0002403A24201D0002BF5D18C68E40FE4075F
:10030000002C01D1086C00E0002030BD8168102273
:1003100011438160704781680422114381607047F6
:100320000146086C80B27047002904D0C2680123DE
:100330001A43C26003E0C26852085200C2607047AC
:10034000C26802239A43C260C2680A43C26070470F
:10035000002A03D043680B43436002E043688B43A9
:100360004360704730B50246002000230124240674
:100370000C40002C05D0946801252D06AC43234683
:1003800000E013681C460C40002C01D0012000E066
:10039000002030BD0160704710B5024600200023E8
:1003A00054680C40234614680C40002C03D0002BEA
:1003B00001D0012000E0002010BD01607047000066
:1003C0000024014003D2FFFF002701400146002026
:1003D000FE4A10684008400002460A431046FB4AA5
:1003E00010607047002806D0F849096810221143B0
:1003F000F64A116005E0F549096810229143F34A75
:10040000116070470020F14909682022114000293D
:1004100001D0012000E000207047EC4800698021F5
:100420000840002804D0EA48E8494860E9484860A4
:100430007047E648006980210843E4490861704735
:100440000420E249C968C907C90F002901D0012069
:1004500010E0DE49C96810221140002901D00220B5
:1004600008E0DA49C96804221140002901D00320BC
:1004700000E00420704710B503460424FFF7E0FFB6
:10048000044603E0FFF7DCFF04465B1E012C01D1AC
:10049000002BF7D1002B00D10524204610BD30B52C
:1004A000044604250B200004FFF7E5FF0546042D54
:1004B00017D1C648006902210843C44908610846AB
:1004C0004461006940210843C04908610B200004D1
:1004D000FFF7D1FF0546BD48006902218843BB49AB
:1004E0000861284630BD10B504240B200004FFF736
:1004F000C2FF0446042C16D1B44800690421084305
:10050000B24908610846006940210843AF490861C3
:100510000B200004FFF7AFFF0446AC48006904213C
:100520008843AA490861204610BD78B506460C46A6
:100530000425002000900B200004FFF79CFF0546D7
:10054000042D24D1A1480069012108439F49086175
:1005500034800B200004FFF78EFF0546042D10D1D8
:10056000B01C0090200C009908800B200004FFF7BD
:1005700082FF05469548006940084000934908619C
:1005800005E092480069400840009049086128460B
:1005900078BD70B504460D4604260B200004FFF715
:1005A0006AFF0646042E11D18848006901210843DC
:1005B0008649086125800B200004FFF75CFF064692
:1005C000824800694008400080490861304670BD9B
:1005D0007E480069012149020840002804D17C4876
:1005E0007A4988607B4888607047784800690121B3
:1005F00049028843754908617047744800690121C0
:100600004903084371490861704700206F49C9696F
:1006100006221140002901D0012000E0002070478F
:1006200030B5AA250424FFF7F0FF002800D00025EC
:100630000B200004FFF71FFF0446042C36D163484B
:10064000006920210843614908610846006940218A
:1006500008435E4908610B200004FFF70CFF0446C5
:10066000042C1BD15948006920218843574908614F
:10067000084600691021084354490861564805801E
:100680000B200004FFF7F7FE0446052C0ED04F4860
:100690000069102188434D49086107E0052C05D009
:1006A0004A4800691021884348490861204630BD06
:1006B000F0B50446494E37460425E443E6B2FF2030
:1006C00000022040070A0B200004FFF7D4FE054675
:1006D000042D21D13D480069102108433B490861A0
:1006E000FF2E06D03C4806810B200004FFF7C3FE16
:1006F0000546042D08D1FF2F06D0374847810B202F
:100700000004FFF7B8FE0546052D05D02F48006907
:10071000102188432D4908612846F0BD30B50546B3
:1007200004240B200004FFF7A6FE0446042C36D157
:1007300026480069202108432449086108460069C9
:1007400040210843214908610B200004FFF793FE74
:100750000446042C1BD11D480069202188431B49F5
:1007600008610846006910210843184908611A48C1
:1007700005800B200004FFF77EFE0446052C0ED0FA
:1007800012480069102188431049086107E0052CD0
:1007900005D00E480069202188430C490861204695
:1007A00030BDF0B505460E46174604240B20000464
:1007B000FFF761FE0446042C24D10448006910218F
:1007C0000843024908612846304309E000200240FE
:1007D00023016745AB89EFCD00F8FF1FFFFF000045
:1007E000F82139430843714948800B200004FFF782
:1007F00042FE0446052C05D06D480069102188434F
:100800006B4908612046F0BD30B5054604240B2035
:100810000004FFF730FE0446042C16D1644800693A
:100820001021084362490861EF2028435F4948804E
:100830000B200004FFF71FFE0446052C05D05C4882
:100840000069102188435A490861204630BD30B5FF
:10085000054604240B200004FFF70DFE0446042C7B
:1008600016D1534800691021084351490861DF201F
:1008700028434E4948800B200004FFF7FCFD044646
:10088000052C05D04A480069102188434849086171
:10089000204630BD30B5054604240B200004FFF788
:1008A000EAFD0446042C16D1414800691021084392
:1008B0003F490861BF2028433C4948800B20000481
:1008C000FFF7D9FD0446052C05D0394800691021F1
:1008D000884337490861204630BD30B505460424B9
:1008E0000B200004FFF7C7FD0446042C16D1304846
:1008F0000069102108432E490861882028432B49AC
:1009000048800B200004FFF7B6FD0446052C05D0F7
:10091000274800691021884325490861204630BDD9
:1009200070B505460E4604240B200004FFF7A3FD16
:100930000446042C13D11E480069102108431C49A9
:1009400008612E800B200004FFF795FD0446052C5E
:1009500005D01748006910218843154908612046D1
:1009600070BD1348C0690004000E70471048006A4B
:100970007047002905D00E4A126902430C4B1A61D8
:1009800004E00B4A12698243094B1A617047014621
:100990000020074AD2680A40002A01D0012000E066
:1009A000002070470249C8607047000000F8FF1F30
:1009B0000020024010B504460920C006844209D137
:1009C0000121480400F0FFFB00210120400400F059
:1009D000FAFB30E06E48844208D10121000200F0A9
:1009E000F2FB0021200200F0EEFB24E06948844283
:1009F00008D10121000200F0E6FB0021200200F0F6
:100A0000E2FB18E06448844209D10121080500F0A6
:100A1000DAFB00210120000500F0D5FB0BE05F4868
:100A2000844208D10121880500F0CDFB002101207E
:100A3000800500F0C8FB10BDF0B50A460021002378
:100A4000002400BF3DE001258D402B4615681D4068
:100A50002C469C4234D11579012D02D01579022DF6
:100A600016D185684F000326BE40B5438560557991
:100A70004E00B540866835438560858801268E40E6
:100A8000B5438580858896798E40B6B2354385809A
:100A900005684F000326BE40B543056015794E003A
:100AA000B540066835430560C5684F000326BE4063
:100AB000B543C560D5794E00B540C6683543C560BD
:100AC000491C1029BFD3F0BD3549016000210171D7
:100AD0000121417100218171C171704708B5012266
:100AE00012040092009A0A430092009AC261C16106
:100AF000009AC261C2690092C269009208BD0246B2
:100B00000020138A0B40002B01D0012000E00020C0
:100B100070470146088A704702460020938A0B40BE
:100B2000002B01D0012000E0002070470146888A98
:100B300070478161704701857047002A01D081614B
:100B400000E00185704781827047F0B500230024E2
:100B50004D07EE0E1546B5402B46CD10AE000546AE
:100B60002035AD594E07F70E0F26BE40B543CE10C7
:100B7000B60007462037BD51CD10AE003D46AD59F9
:100B80001D432C46CD10AD003E467451F0BD000013
:100B90000004004800080048000C00480014004809
:100BA000FFFF00002C4901432C4AD160704700210F
:100BB0008278002A27D02A4A03231B02D2180378FE
:100BC0009B109B00D15802789207D30EFF229A40C7
:100BD0000B469343194642789207120E03789B07FF
:100BE000DB0E9A4011431E4A03231B02D2180378DE
:100BF0009B109B00D1500278D306DB0E01229A4055
:100C0000174B1A6007E00278D306DB0E01229A40E8
:100C1000134B80331A6070477047002905D00F4A84
:100C2000126902430D4B1A6104E00C4A12698243B7
:100C30000A4B1A617047042806D10A49096904223F
:100C40001143084A116105E00649096904229143EC
:100C5000044A1161704700000000FA0500ED00E051
:100C600000E100E000E000E0FE48006801210843E8
:100C7000FC49086008464068FB490840F94948605B
:100C800008460068F9490840F649086008460068C7
:100C9000012189048843F3490860084640683F21E0
:100CA00009048843EF4948600846C06A000900010A
:100CB000C8620846006BFF2154318843E949086344
:100CC0000846406B40084000486300208860704739
:100CD0000021E44A917011468870704710B50246B1
:100CE0000021002300205111002902D1DD4C23688E
:100CF0000BE0012902D1DB4C236A06E0022902D174
:100D0000D84C636A01E0D74C636BD106C90E01244D
:100D10008C401C40002C01D0012000E0002010BDC0
:100D200038B5002000900024002500BF1120FFF7F7
:100D3000D5FF05460098401C009005210903009846
:100D4000884201D0002DF1D01120FFF7C7FF002805
:100D500001D0012400E00024204638BD01460020D7
:100D6000C04A1068F82302469A431046CA0010434E
:100D7000BC4A10607047002806D0BA4909680122B1
:100D80001143B84A116005E0B649096849084900AD
:100D9000B44A1160704701460020B24A506BF823F4
:100DA00002469A431046CA001043AE4A5063704749
:100DB000002806D0AB49496B01221143A94A51636F
:100DC00005E0A849496B49084900A64A51637047A4
:100DD000002806D0A349496B04229143A14A5163DC
:100DE00005E0A049496B042211439E4A51637047B4
:100DF0009C49096A490849009A4A11621146096AE0
:100E000004229143974A11621146096A0143116213
:100E100070479449096A18229143924A1162114617
:100E2000096A014311627047002806D08D49496A5A
:100E3000012211438B4A516205E08A49496A4908F7
:100E40004900884A51627047864A52687B23DB0317
:100E50009A43844B5A601A46526803460B431A431E
:100E6000804B5A607047002807D07E4909680122EC
:100E7000120611437B4A116006E07A490968012293
:100E800012069143774A1160704701460020754A67
:100E9000D06A0009000102460A431046714AD06236
:100EA0007047002807D06F4909680122D204114316
:100EB0006C4A116006E06B4909680122D204914333
:100EC000684A1160704702460020664B586800026D
:100ED000000A13060B431843624B586070470146E3
:100EE0000020604A50688008800002460A4310468D
:100EF0005C4A506070475B4840680C21084070476E
:100F000001460020574A5068F02302469A43104693
:100F100002460A431046534A50607047014600207B
:100F2000504A506807231B0202469A431046024665
:100F30000A4310464B4A506070474A4949680122AB
:100F400092039143474A51601146496882B2114366
:100F5000444A51601146096B92159143414A11630D
:100F60001146096B020C11433E4A116370473D491B
:100F7000096B402291433B4A11631146096B0143BF
:100F8000116370473749096B10229143354A116349
:100F90001146096B0143116370473249096B890897
:100FA0008900304A11631146096B01431163704790
:100FB000FEB5044600250026002001900090002781
:100FC000284840680C2108400546002D04D0042D17
:100FD00005D0082D28D105E02548206027E02448C9
:100FE000206024E01F4840680F218904084006461D
:100FF0001C4840680321C90308400190B00C861CBE
:101000000198002803D11B48704320600BE015486D
:10101000C06A0007000F401C00901548009901F0BD
:1010200005FE7043206002E01148206000BF00BF51
:101030000C484068F021084005462D090E48475DE0
:101040002068F840606007484068072109020840AE
:1010500005462D0A0848475D6068F840A0600148D1
:10106000006B0BE0001002400CB8FF08FFFFF6FE1B
:1010700000127A0000093D0000000020FF2101312C
:101080000840884202D07748E0600DE0764840682A
:10109000012189030840884203D0A0684008E0602D
:1010A00002E0A0688008E0606F48006B40210840C3
:1010B000402802D06D48206102E00120C003206179
:1010C0006948006B10210840102802D06848606110
:1010D00001E0206860616448006B8007800F002891
:1010E00002D1A068A06119E05F48006B8007800F03
:1010F000012802D12068A06110E05B48006B8007E6
:10110000800F022802D18003A06107E05648006BDF
:101110008007800F032801D15548A061FEBD5249C8
:10112000096A0143504A11627047002807D04E49AE
:10113000096A0122D20311434B4A116206E04A496F
:10114000096A0122D2039143474A1162704700287D
:1011500007D04549096A012212041143424A11622B
:1011600006E04149096A0122120491433E4A116294
:101170007047002905D03C4A526902433A4B5A61F4
:1011800004E0394A52698243374B5A61704700295B
:1011900005D0354A92690243334B9A6104E0324AE2
:1011A00092698243304B9A617047002905D02E4ADC
:1011B000D26902432C4BDA6104E02B4AD2698243A4
:1011C000294BDA617047002905D0274A926A024309
:1011D000254B9A6204E0244A926A8243224B9A6227
:1011E0007047002905D0204AD26802431E4BDA60BE
:1011F00004E01D4AD26882431B4BDA607047002925
:1012000005D0194A12690243174B1A6104E0164AC5
:1012100012698243144B1A617047002905D0124AA3
:10122000527A0243104B5A7204E00F4A527A8243B8
:101230000D4B5A7270470C48406A01210906084359
:1012400009494862704701460020074A92680A40EF
:10125000002A01D0012000E0002070470249887276
:1012600070470000809FD5000010024012800000EF
:1012700000127A0010B50446FE48844208D10121CC
:10128000C014FFF7AEFF0021E014FFF7AAFF56E0FD
:1012900001208007844208D101210846FFF7AFFFF3
:1012A00000210120FFF7ABFF49E0F348844208D159
:1012B00001210220FFF7A3FF00210220FFF79FFF7B
:1012C0003DE0EE48844208D101211020FFF797FF4E
:1012D00000211020FFF793FF31E0E948844208D154
:1012E00001218015FFF78BFF0021A015FFF787FF75
:1012F00025E0E448844209D101210804FFF771FF89
:10130000002101200004FFF76CFF18E0DE48844252
:1013100009D101214804FFF764FF002101204004A6
:10132000FFF75FFF0BE0D948844208D10121880410
:10133000FFF757FF002101208004FFF752FF10BD87
:1013400000220288CB4B984206D001239B0798428B
:1013500002D0C94B984203D1CD4B1A404B881A4357
:10136000C64B984203D0CB4B1A400B891A430280DC
:101370004B68C3620B880385BE4B984208D0C14BB3
:10138000984205D0C04B984202D0C04B984201D140
:101390008B7A03860123838270470021C943416011
:1013A0000021018001814180817270470185828224
:1013B00070470A4600210188B54B19400B4613437C
:1013C00019460180704741627047C162704701460B
:1013D000486A70470146088D7047002904D002888A
:1013E00002231A43028004E00288A94B6E331A409C
:1013F00002807047002904D0028804231A43028027
:1014000004E00288A24B6C331A4002807047002926
:1014100004D0028880231A43028004E002889C4B97
:10142000103B1A40028070470288994B68331A407B
:10143000028002880A43028070470288954B1A4056
:10144000028002880A4302807047002904D0028883
:1014500001231A43028004E002888D4B6F331A4047
:10146000028070470A884B881A438B881A43CB88BE
:101470001A430B891A434B891A438B891A43442315
:101480001A5270470021018041808180C180018112
:10149000418181817047002907D04422125A0123DB
:1014A000DB031A4344231A5205E04422125A530420
:1014B0005B0C44221352704770B5002400220023B5
:1014C000058C734E6F3635400584028C8388048BFF
:1014D0006F4D2C40B51E2C400D882C43751E2A40A4
:1014E0008D892A434D882A43624DA84208D0654D14
:1014F000A84205D0644DA84202D0644DA84212D142
:10150000634D68352A40CD892A43614D6C352A40A8
:101510008D882A435E4D903D2B405F4D2B400D8AB8
:101520002B434D8A2B43838004838D68456302845B
:1015300070BD70B5002400220023058C544E603627
:1015400035400584028C8388048B544D2C40514DCA
:101550002C400D782D062D0C2C434D4D50352A4036
:101560008D892D052D0C2A434D882D052D0C2A43E0
:10157000404DA84202D0434DA8421CD1484D2B40BB
:101580000D8AAD042D0C2B433A4DA84213D1404D8A
:10159000103D2A40CD892D052D0C2A433C4D303578
:1015A0002A408D882D052D0C2A433E4D2B404D8A17
:1015B000AD042D0C2B43838004838D6885630284E6
:1015C00070BD70B5002400220023058C304E903E83
:1015D00035400584028C8388848B2D4D2C402C4D06
:1015E0006D352C400D882C432B4D2A400D7B2D064C
:1015F0002D0C2A438D782D062D0C2A431D4DA84213
:1016000017D1284D2A408D7B2D062D0C2A43244DC1
:101610002A400D792D062D0C2A43234D2B40234DB6
:101620002B400D8A2D052D0C2B434D8A2D052D0C9D
:101630002B43838084838D68C563028470BD70B53D
:10164000002200230024058C174E35400584038CAE
:101650008488828B114D2A400E4D2A400D782D062C
:101660002D0C2A43114D2B400D7B2D072D0C2B43A8
:101670008D781DE0002C0140000400400010004067
:10168000002000400040014000440140004801406B
:101690008FFF0000FFFC0000FFFD0000FF8F000037
:1016A000FFFB0000FFF70000FFEF0000FFDF00007E
:1016B0002D072D0C2B43FE4DA84205D1FD4D2C408E
:1016C0000D8AAD052D0C2C43848082838D680564C2
:1016D000038470BD0021018041808180816081810F
:1016E000C18101824182704770B503460020002409
:1016F0001846183001258D40ACB21D8CA5431D84C1
:10170000002901D0082909D14D1028180568702634
:10171000B54305600568154305600DE00D1F2D04F8
:101720006D0C2818056807263603B5430560056863
:101730001606360C3543056070BD41637047816302
:101740007047C1637047016470470A460021018BEE
:10175000D94B19400B4613431946018370470A467B
:101760000021018BD54B194013061B0C1943018333
:1017700070470A460021818BCF4B19400B4613431B
:101780001946818370470A460021818BCB4B194053
:1017900013061B0C194381837047002904D08288EB
:1017A00001231A43828004E08288C34B6F331A40BE
:1017B000828070470A460021018BBF4B6833194075
:1017C0000B4613431946018370470A460021018BDB
:1017D000BB4B194013061B0C1943018370470A4683
:1017E0000021818BB44B683319400B4613431946D3
:1017F000818370470A460021818BB14B1940130643
:101800001B0C1943818370470A460021018BAA4BA8
:101810006C3319400B4613431946018370470A463F
:101820000021018BA74B194013061B0C19430183A0
:1018300070470A460021818B9F4B6C3319400B4641
:1018400013431946818370470A460021818B9D4BC3
:10185000194013061B0C1943818370470A46002167
:10186000018B954B103B19400B46134319460183DE
:1018700070470A460021018B4904490C13061B0CD2
:101880001943018370470A460021818B8A4B103B24
:1018900019400B4613431946818370470A460021BD
:1018A000818B4904490C13061B0C19438183704733
:1018B0000A460021018C804B6E3319400B461343BE
:1018C0001946018470470A460021018C7A4B68331F
:1018D00019400B4613431946018470470A460021FC
:1018E000018C754B5033194013051B0C19430184AF
:1018F00070470A460021018C6F4B103B19401305BD
:101900001B0C1943018470470A460021018C6E4B61
:10191000194013061B0C1943018470470A46002125
:10192000018C674B194013061B0C19430184704747
:101930000A460021018C654B194013071B0C194303
:101940000184704702895C4B68331A400281028926
:101950000A430281704730B5002301248C40A3B2B2
:10196000048C9C430484048C15468D40ADB22C43FA
:10197000048430BD30B5002304248C40A3B2048C11
:101980009C430484048C15468D40ADB22C430484E2
:1019900030BD002904D0828804231A43828004E0E9
:1019A0008288454B6C331A4082807047828B484B4B
:1019B0001A408283828B0B061B0C1A43828370476A
:1019C000F8B50C460021002500260096068C414FF4
:1019D0003E400684818B058C2607360C00963E4ED1
:1019E00031401606360C31431E07360C31433B4E50
:1019F000354001273F03009E3E43354381830584E4
:101A0000F8BD828B2C4B64331A408283828B0A434D
:101A100082837047F8B50C46002100250026009609
:101A2000068C254F903F3E400684818B058C260610
:101A3000360C0096204E833E31401E05360C164370
:101A40003143274E3540FF270137009E3E43354343
:101A500081830584F8BD028B1D4B1A400283028BE3
:101A60000B061B0C1A4302837047F8B50C46002185
:101A7000002500260096068C0F4F60373E400684F6
:101A8000018B058C2605360C0096134E31401E073F
:101A9000360C31431606360C3143074E303E354086
:101AA0001027009E3E43354301830584F8BD0000A6
:101AB000002C0140FFBF00008FFF0000FF8F0000DF
:101AC000FFF70000FFFB0000FFFD0000FFDF00004C
:101AD000FFF30000FFEF0000FF0C0000FF5F0000BD
:101AE000FFF50000028BD84B1A400283028B0A4399
:101AF00002837047F0B50C4600210025068CD24FBA
:101B00000B373E400684018B058CCF4EE73E3140BB
:101B10001E05360C16433143CB4EB61C354001260C
:101B20002643354301830584F0BD70B505460C4658
:101B3000208800280AD12389A28861882846FFF7D7
:101B4000D9FFE1882846FFF7CDFF25E0208804284B
:101B50000AD12389A28861882846FFF786FFE18899
:101B60002846FFF778FF17E0208808280AD1238944
:101B7000A28861882846FFF74DFFE1882846FFF7D5
:101B800040FF09E02389A28861882846FFF718FFF3
:101B9000E1882846FFF70AFF70BD002101804180DF
:101BA000012181800021C18001817047F8B505467F
:101BB0000C46002601276088002801D1022600E09B
:101BC0000026A088012801D1022700E001272088F3
:101BD000002814D12389A28861882846FFF78AFF4C
:101BE000E1882846FFF77EFF23893A46314628469A
:101BF000FFF73BFFE1882846FFF72DFF13E023891D
:101C0000A28861882846FFF730FFE1882846FFF761
:101C100022FF23893A4631462846FFF76BFFE188C9
:101C20002846FFF75FFFF8BD0146486B7047014645
:101C3000886B70470146C86B70470146086C704757
:101C4000002A03D083890B43838102E083898B437D
:101C5000838170478182704702460020138A0B40BF
:101C6000002B01D0012000E000207047CA4302820F
:101C7000704730B50246002000230024158A0D402D
:101C80002B4695890D402C46002B03D0002C01D00B
:101C9000012000E0002030BDCA430282704710B529
:101CA0000B4613434824235210BD002A03D08389D6
:101CB0000B43838102E083898B4383817047002932
:101CC00004D0828808231A43828004E082885E4B15
:101CD0001B1D1A408280704701895B4A521D1140CA
:101CE000018170470A4600210189574B643B194026
:101CF0000B46134319460181704730B504460D4623
:101D000029462046FFF7EEFF20890721084320815E
:101D100030BDF8B504460D4616461F46602D06D167
:101D20003B46012231462046FFF79FFE05E03B4639
:101D3000012231462046FFF7DDFE29462046FFF707
:101D4000D1FF2089072108432081F8BD30B50C461A
:101D500000210189C9B21D062D0C154325432943D5
:101D6000018130BDFFB505460E46174600243A46B0
:101D700031462846039BFFF7E9FF2C893248401D76
:101D80000440072004433048643804407020044372
:101D90002C81FFBDF0B504460D4616461F463B4656
:101DA000324629462046FFF7D1FF208901218903C9
:101DB00008432081F0BD8288234B643B1A40828017
:101DC00082880A438280704702891F4B5B1D1A403C
:101DD000028102890A430281704702891A4B743BCF
:101DE0001A40028102890A4302817047F0B50C460D
:101DF0000021002500260189058B068C124F7F1DCE
:101E000039400F4627433946104F3D40FF270237E0
:101E10003D430D4F9E3F3E401F053F0C17433E4341
:101E2000018105830684F0BD002904D082888023C7
:101E30001A43828004E08288034B743B1A408280FC
:101E40007047502211527047F3FF0000FCFC000065
:101E500070B50546FEF7E1FAFE48FEF720FB0024C8
:101E60000CE0A200A958A2000F239B02D218012364
:101E7000DB061A431046FEF758FB641C082CF0DB07
:101E8000FEF7D7FA70BD7FB506460920C006808AE6
:101E90000121C90308430921C9068882EE48808AC6
:101EA00040218843EC4988820846808A8021884303
:101EB000E94988827D20C00000F041FC002446E012
:101EC000E0B200F0BEFB0A2000F039FC0020E3493C
:101ED0000880E34908700121E248FFF7B6FA0122C1
:101EE0001021E048FFF7ACFE01221146DD48FFF764
:101EF000A7FE00BFDA4800780028FBD00020DA49AE
:101F00000860322508E0A800D8490858D649096871
:101F10004018D54908606D1C284600F005FF0022D6
:101F2000D34B0391029000F03FFFECD3CE48006802
:101F300000F00EFFCF4AD04B0191009000F08CFED4
:101F40000391029000F012FFA1007050641C082C55
:101F5000B6DB7FBD10B50146BE4A002004E0830019
:101F6000D35884000B51401C0828F8DB10BD052015
:101F70000002FEF717FE00F0ABFB00F04DFB00F097
:101F80000BFC00F06FFC00F0B1FC00F02BFC00F04B
:101F9000E4FDBA48FFF7DEFF00BF0421B848FEF7B2
:101FA000E1F90028F9D0B648FEF7BAF9B54908803A
:101FB0003AE200BF0421B248FEF7D4F90028F9D074
:101FC000AF48FEF7ADF9AF49088008460088AE4932
:101FD000884202DA0120AD490870AA480088AA495F
:101FE0006A31884202DD0020A8490870A7480078BD
:101FF000002878D001221146A548FFF721FE0121D3
:10200000A348FFF722FA20219348FEF778FD012824
:102010006AD101219F48FEF772FD002828D1FF20D8
:10202000F53000F08CFB01219A48FEF768FD00288E
:102030001ED19948FFF727FF9748FFF709FF0020B7
:1020400000F0EAFCC82000F07AFBFF2000F0E4FC7E
:10205000C82000F074FB002000F0DEFC8748FFF78A
:1020600079FF00BF01218B48FEF749FD0028F9D018
:102070000920C006808A0121C90308430921C90635
:1020800088827548808A402188437349888208463F
:10209000808A802188437049888200207F49088097
:1020A000002443E0E0B200F0CCFA0A2000F047FB45
:1020B00000206A49088001216A48FFF7C6F9012219
:1020C00010216848FFF7BCFD012211466548FFF763
:1020D000B7FD00BF624800780028FBD000206249AD
:1020E000086032270AE072E02AE0B8005F49085829
:1020F0005D49096840185C4908607F1C384600F05B
:1021000013FE054600225A4B00F04EFEEDD3A00010
:102110005A49085854490968884206D20120A0400B
:102120005E49098808435D490880641C082CB9DBB6
:102130005A49087800F070FC012000F000FB73E1C0
:102140000920C006808A0121C90388430921C906E4
:1021500088824148808A402108433F498882084656
:10216000808A802108433C4988820846808A082169
:10217000884339498882012000F0E1FA3648808A94
:102180000821084334498882012000F0D8FA00244D
:102190001AE0FF20F53000F0D2FA2F48808A102193
:1021A00088432D498882012000F0C9FA2A48808A94
:1021B0001021084328498882012000F0C0FAFF203E
:1021C000F53000F0BCFA641C092CB8DAE1E7002213
:1021D00001212F48FFF734FD00212D48FFF735F985
:1021E00020211D48FEF78BFC012878D101212948C8
:1021F000FEF785FC002828D1FF20F53000F09FFA7B
:1022000001212448FEF77BFC00281ED12248FFF75D
:102210003AFE2148FFF71CFE002000F0FDFBC8201D
:1022200000F08DFAFF2000F0F7FBC82000F087FADD
:10223000002000F0F1FB1148FFF78CFE00BF0121E8
:102240001448FEF75CFC0028F9D00920C006808AFB
:10225000012125E0003C0008000400481000002097
:1022600014000020000400401C0000203C0000205E
:1022700000C06240713D0AD7A370F13F5C030020AB
:102280000024014016000020B207000018000020C2
:1022900000200040001400487C03002020000020A3
:1022A000C90308430921C90688826048808A402101
:1022B00088435E4988820846808A802188435B493A
:1022C00088820920C006808AFF21013188430921C4
:1022D000C9068882002056490880002442E04BE06D
:1022E000E0B200F0AEF90A2000F029FA00205149CE
:1022F000088001215048FFF7A8F8012210214E481C
:10230000FFF79EFC012211464B48FFF799FC00BFE6
:102310004A4800780028FBD000204949086032274D
:1023200008E0B80047490858454909684018444939
:1023300008607F1C384600F0F7FC05460022424B3F
:1023400000F032FDEDD3A000404908583C4909682F
:10235000884206D20120A040354909880843344903
:102360000880641C082CBBDB3149087800F054FB62
:10237000012000F0E4F957E00920C006808A01211D
:10238000C90388430921C90688822848808A4021D8
:102390000843264988820846808A802108432349C9
:1023A00088820846808A0821884320498882012043
:1023B00000F0C5F91D48808A082108431B4988821E
:1023C000012000F0BCF900242CE00920C006808A1E
:1023D000FF21013108430921C9068882FF20F53019
:1023E00000F0ADF91148808A102188430F49888296
:1023F000012000F0A4F90D48808A102108430B4900
:102400008882012000F09BF90920C006808AFF2104
:10241000013188430921C9068882FF20F53000F088
:102420008EF9641C092CD0DBC3E5000000040048D1
:1024300020000020100000200004004014000020B4
:102440001C0000203C00002000C062405C03002013
:10245000704703E004480549C86000E0FAE700BFA0
:1024600070477047704700000400FA0500ED00E077
:102470000CB500200190009011205F4908605F4872
:1024800040685E49486008464068486008464068C1
:102490007F21C9038843594948600846406805219F
:1024A000C9040843554948600846006801210906E7
:1024B00008435249086000BF50480068012149069E
:1024C00008400028F8D04D484068800880004B49FB
:1024D000486008464068022108434849486000BFF8
:1024E000464840680C2108400828F9D10CBD10B5B9
:1024F0004248006801210843404908600846406896
:102500003F4908403D494860084600683D49084049
:102510003A49086008460068012189048843374920
:102520000860084640683F210904884333494860F1
:102530000846C06A00090001C8620846006BFF2116
:10254000543188432D4908630846406B40084000D9
:10255000486300208860FFF78BFF10BDF8B50025A9
:10256000002400260027254840680C210840054625
:10257000002D04D0042D06D0082D2AD107E02248D2
:102580002249086029E020482049086025E01B48CE
:1025900040680F2189040840044618484068032118
:1025A000C90308400646A00C841C002E04D118481C
:1025B0006043164908600BE01048C06A0007000F2E
:1025C000471C3946104800F031FB60430F49086052
:1025D00003E00D480D49086000BF00BF0748406890
:1025E000F021084000090B490D5C08480068E840EC
:1025F00006490860F8BD00000020024000100240BB
:102600000CB8FFF8FFFFF6FE00127A00240000204D
:1026100000093D00280000201CB5012103204004D2
:10262000FEF7A7FD01216846017107208002009096
:1026300003216846417169460920C006FEF7FCF98E
:102640001CBDC107C90F002909D00921C906898A03
:102650000122120311430922D206918208E00921C6
:10266000C906898A0122120391430922D206918266
:1026700002210140002909D00921C906898A0122C5
:10268000D20211430922D206918208E00921C9062B
:10269000898A0122D20291430922D2069182042121
:1026A0000140002909D00921C906898A0122920224
:1026B00011430922D206918208E00921C906898ABC
:1026C0000122920291430922D206918270470000B2
:1026D00010B50420C043FEF7AEFA2A492A48006824
:1026E00000F0A4FA29490870084600787D21C90045
:1026F00048432749088010BD0146244A12784A43BE
:10270000244B5A6100229A611A46126901231A4326
:10271000204B1A6100BF1F4A1069C207D20F002A5E
:1027200004D0012212040240002AF4D0194A12698E
:1027300052085200174B1A6100229A6170470146F5
:10274000134A12884A43134B5A6100229A611A466F
:10275000126901231A430F4B1A6100BF0D4A106919
:10276000C207D20F002A04D0012212040240002A1C
:10277000F4D0084A126952085200064B1A6100222E
:102780009A61704700127A0024000020380000206F
:102790003A00002000E000E01CB501218804FEF7AB
:1027A000E8FC012168460171182000900321684669
:1027B000417169460148FEF73FF91CBD000400481D
:1027C0001CB501214804FEF7D4FC01200090032130
:1027D000684601710021C17169460920C006FEF7F3
:1027E0002BF91CBD00B587B0FFF7EAFF01214802B5
:1027F000FEF7CDFC1A48FDF775FC01A8FDF794FC27
:102800000120694608720020059004900390019011
:10281000069001A91248FDF773FC0020FEF78DFB1E
:10282000052201210E48FDF71DFD0120FDF7E4FC06
:102830000B48FDF74DFD01210948FDF7ABFD0121D6
:102840000748FDF779FC00BF01210548FDF78AFD27
:102850000028F9D00248FDF75EFD07B000BD00007A
:102860000024014000B589B001210220FEF79DFC43
:1028700001218804FEF77DFC0220039002216846B6
:1028800001740021C17481740321417403A9594862
:10289000FEF7D2F8012211465648FEF756F90121FB
:1028A00049026846018400214183534807906846E5
:1028B000018306A95148FEF743FD0C2168460180BB
:1028C000002101814180C1800121818069464B48FE
:1028D000FFF72BF910216846017500214175012190
:1028E000817505A8FEF763F909B000BD1FB5012188
:1028F0000802FEF75AFC002168468181C1804048E9
:102900000290FF21E0316846818001A93D48FEF731
:1029100017FD132168460170012141708170FEF797
:1029200046F9002201213748FFF78AF9002135488E
:10293000FEF78BFD1FBD10B501213248FFF799F955
:1029400000280CD00920C006808AFF2101314840B0
:102950000921C906888201212A48FFF79DF910BD87
:1029600010B510212548FFF784F9002831D02648FA
:1029700000880104081A2149403109684018234998
:1029800009888900224A505000211C48FEF71BFD8F
:1029900000201D49088010211848FFF77DF91B48C9
:1029A0000088401C1949088008460088C82810DBA8
:1029B000002210211148FFF743F9002201210F489E
:1029C000FFF73EF900210D48FEF73FFD01201149B8
:1029D000087001210948FFF74CF9002808D00A487F
:1029E0000088401C0849088001210448FFF754F979
:1029F00010BD000000040048FFFF0000000400407C
:102A0000204E000000200040120000201000002096
:102A10003C00002014000020C107C90F002906D087
:102A20008049898A022291437E4A918205E07D494C
:102A3000898A022211437B4A9182022101400029A6
:102A400008D00921C906898A042291430922D206A5
:102A5000918207E00921C906898A042211430922CB
:102A6000D206918204210140002908D00921C9061B
:102A7000898A082291430922D206918207E009211E
:102A8000C906898A082211430922D20691820821A7
:102A90000140002908D00921C906898A10229143E2
:102AA0000922D206918207E00921C906898A1022EB
:102AB00011430922D206918210210140002908D039
:102AC0000921C906898A202291430922D2069182CE
:102AD00007E00921C906898A202211430922D2066A
:102AE000918220210140002908D00921C906898A44
:102AF000402291430922D206918207E00921C906AA
:102B0000898A402211430922D20691824021014044
:102B1000002908D00921C906898A80229143092207
:102B2000D206918207E00921C906898A80221143D1
:102B30000922D206918280210140002906D03A491B
:102B4000898A49084900384A918205E03649898ACC
:102B500001221143344A918270471CB50121232080
:102B60004004FEF706FB0020FFF756FF01216846F0
:102B7000017102200090032168464171694629488D
:102B8000FDF75AFFFC20009069460920C006FDF7BA
:102B900053FF0120009069462348FDF74DFF0121B6
:102BA0006846017103214171FF20013000906946A0
:102BB0000920C006FDF740FF01216846017103218D
:102BC00041710120C003009069460920C006FDF74D
:102BD00033FF8020009069461348FDF72DFF402009
:102BE000009069461048FDF727FF002168460171F3
:102BF0002020009068464171C171817169460A4880
:102C0000FDF71AFF00216846017101200090684617
:102C100041710121C1710021817169460148FDF7AF
:102C20000BFF1CBD001400480004004830B50B46E3
:102C3000014600202022012409E00D46D5409D4296
:102C400005D31D469540491B25469540401915461C
:102C5000521E002DF1DC30BDF0B51FB488B00B99C9
:102C60000998002448400999C00F49004908099172
:102C7000C0070B990090490049080B9109990898E1
:102C8000A64608431CD00B990A98084318D0099807
:102C900001244000420D4800410D0998240500031D
:102CA000000B204309900B980003000B20430B906E
:102CB00050181C494018002201901446104605E0A7
:102CC000002001460DB0F0BD032801DA034600E004
:102CD00003239C46C11A0AAE0AE05F0008ADED5B13
:102CE0004F00F75B7D430027AA187C41491C5B1EFF
:102CF0006145F2DD410004AB5A522104120C0A4333
:102D0000240C401C0828DFDB0198029000997046D3
:102D100001910090059B049A0799069800F076F8B7
:102D2000D0E700000DFCFFFF0EB5C217C10F5040E9
:102D3000CA0740180021054B0293019200910A46F0
:102D40000B4600F063F803B000BD00003304000040
:102D50000EB505490291002100910A460B460191EA
:102D600000F054F803B000BD330400004A0009032A
:102D70000123090B1B051943094B10B5520D9A424B
:102D800001DA002010BD064B34339A4203DC9A1A54
:102D900000F01EF810BD03495118884010BD000016
:102DA000FF030000CDFBFFFF10B5002904DB012469
:102DB000E40740428C412146002B04DB1C460123E2
:102DC000DB075242A3418B4200D1824210BD00007A
:102DD00010B5202A04DB0846203AD040002110BD5F
:102DE0000B46D340D0402024A21A914008431946F4
:102DF00010BD10B5002B08DA0024401C6141921868
:102E00005B411A4301D14008400010BDF0B51FB42A
:102E100082B005460C0003D0084600F06BF802E0D3
:102E200000F068F82030024600902146284600F065
:102E300051F8049B059A04460F4618431143084372
:102E400014D0184610431BD0009840210A1A184687
:102E50000599FFF7BDFF05460E46009A05990498AF
:102E600000F038F8084305D0012004E02046394638
:102E700007B0F0BD0020C11705430E432C43374374
:102E800000990E986305401A7905E40A00220C4364
:102E9000FD0A0A3002D500200146E9E701051019B4
:102EA00069410C9C0D9D00196941FFF7A2FFDFE706
:102EB000064C0125064E05E0E36807CC2B430C3C8D
:102EC00098471034B442F7D3FDF7F8F8402F0008C4
:102ED000602F000810B5202A04DB0146203A9140FB
:102EE000002010BD914020239C1A0346E340194363
:102EF000904010BD2021020C01D010211046020A82
:102F000001D010460839020901D01046091F820875
:102F100001D01046891E420801D0881E7047081A49
:102F2000704702E008C8121F08C1002AFAD1704792
:102F30007047002001E001C1121F002AFBD1704739
:102F4000602F0008000000203C000000222F000835
:102F50009C2F00083C000020640B0000322F00086A
:102F6000000000000102030401020304060708092F
:102F70000000000000000000000000000000000051
:102F800000000000006CDC020000000000000000F7
:0C2F90000102030406070809000000000D
:04000005080000C926
:00000001FF
